:04000000FEEF00F01F
:08000800046ED8CF05F0E0CF33
:1000100006F00001E9CF0CF0EACF07F0E1CF08F0DD
:10002000E2CF09F0D9CF0AF0DACF0BF0F3CF12F01C
:10003000F4CF13F0FACF14F0F5CF15F0F6CF16F099
:10004000F7CF17F000C00EF001C00FF002C010F0A3
:1000500003C011F0F2AA30EF00F0F2B457EF00F055
:100060000EC000F00FC001F010C002F011C003F08C
:100070000CC0E9FF07C0EAFF078E08C0E1FF09C016
:10008000E2FF0AC0D9FF0BC0DAFF12C0F3FF13C0B2
:10009000F4FF14C0FAFF15C0F5FF16C0F6FF17C035
:1000A000F7FF045006C0E0FF05C0D8FF1000F2942F
:1000B000E90ED76E6B0ED66E19A202D01A2A01D0A5
:1000C0001A061A50040802E11A6A04D01A3C02D037
:1000D000030E1A6E1A50FC0F2EE2040FA8EF00F068
:1000E000959E8C8E959C8C8C19A203D01B2AD8B41B
:1000F0001C2A1CBE05D01C50010802E21C6A1B6AA7
:100100001AD0959E8C8E959C8C9C15D0959E8C9E1D
:10011000959C8C9C10D0959E8C9E959C8C8C19B235
:1001200004D01B50D8B41C061B061CBE01D003D043
:10013000010E1C6E1B681A5206E11B501C1003E1D5
:10014000959A8C8A02D0959A8C9AF29430EF00F0AE
:10015000E824F76AF7366B0FF66E010EF7220A00F5
:10016000F550FA6E0800F550F96EE00002010C013E
:100170001601EA6A1E0EE96EEF500EE0050E016EE2
:10018000006A002EFED7012EFBD72E0E006E002E29
:10019000FED700D0EF2EF2D7120093801D9081A0E1
:1001A0001D8093821D9281A21D82000E1DB0010E42
:1001B0001F6E000E1DB2010E1F181AE01DA006D002
:1001C000640E1E6ED6DF1DA001D019821DA206D0BE
:1001D000640E1E6ECEDF1DA201D0199219A407D0A5
:1001E0001994E90ED76E6B0ED66E880ED56E04D0BC
:1001F00019B402D01984D56A27EF01F0F86AD09EAD
:10020000078EEA6AE96A1990199219941A6A1C6AA7
:100210001B6A000E7E6EC198C19A7F50E00B7F6E04
:10022000799A79987A6A7B6AE90ED76E6B0ED66EE8
:10023000D56AF294E00EF212010E7C6EF19E1A6AFB
:10024000959E8C9E959C8C9C959A8C8AA6D7FED761
:06025000000E016E030028
:020000040030CA
:0E00000000C21E1E008F81000FC00FE00F40D7
:00000001FF
;PIC18F45K20
;CRC=9931  CREATED="18-ago-14 15:43"
